:020000022000DC
:106000000000042065820200A5820200A78202002F
:10601000A9820200AB820200AD82020000000000F3
:10602000000000000000000000000000E581020008
:10603000B18202000000000005820200B582020069
:10604000C59F02007D650200B7820200B782020090
:10605000B7820200B7820200B7820200B782020054
:10606000B7820200B7820200B7820200B782020044
:10607000B7820200B7820200B7820200B782020034
:10608000B78202000D800200B7820200B7820200D0
:10609000B7820200B7820200B7820200B782020014
:1060A000B7820200B7820200B78202002D7202009E
:1060B000B7820200B782020000000000000000006A
:1060C000B7820200B7820200B7820200B7820200E4
:1060D000B7820200B7820200B78202000993020071
:1060E000B7820200B7820200B782020000000000FF
:1060F00000000000B782020000000000B78202002A
:10610000000000000000000000000000000000008F
:10611000000000000000000000000000000000007F
:10612000000000000000000000000000000000006F
:10613000000000000000000000000000000000005F
:10614000000000000000000000000000000000004F
:10615000000000000000000000000000000000003F
:10616000000000000000000000000000000000002F
:10617000000000000000000000000000000000001F
:10618000000000000000000000000000000000000F
:1061900000000000000000000000000000000000FF
:1061A00000000000000000000000000000000000EF
:1061B00000000000000000000000000000000000DF
:1061C00000000000000000000000000000000000CF
:1061D00000000000000000000000000000000000BF
:1061E00000000000000000000000000000000000AF
:1061F000000000000000000000000000000000009F
:1062000010B5054C237833B9044B13B10448AFF3F0
:1062100000800123237010BDF8360020000000002C
:10622000C0D2020008B5034B1BB103490348AFF3CA
:10623000008008BD00000000FC360020C0D2020033
:10624000154B002B08BF134B9D46A3F5803A002148
:106250008B460F461348144A121A04F099FC0F4B50
:10626000002B00D098470E4B002B00D09847002001
:10627000002104000D000D48002802D00C48AFF3A7
:10628000008004F01BFC2000290002F02BF804F031
:1062900001FC00BF00000800000004200000000016
:1062A00000000000F8360020EC4A0020000000004A
:1062B000000000001F2886BF00F01F00044A4FF0B6
:1062C000A042012303FA00F0C2F80805704700BF9E
:1062D000000300501F2886BF00F01F00044A4FF043
:1062E000A042012303FA00F0C2F80C05704700BF7A
:1062F0000003005070B5554A554E1378554C002593
:10630000356003F0FF01002B00F08280524B1988AA
:10631000524BB3F80900884207D11570B3F8032037
:10632000B3F801306281238101254D4A137883B18E
:10633000494B19884B4BB3F80500884209D100211D
:10634000117049491A681B79226148480B7100F0A5
:106350002AFF002D5ED1638940F2E24058435FD0AE
:1063600000F098FF002D47D13B4A40481388013385
:106370009BB2138000F03CFF3D4908703D48037814
:10638000002B51D03C4B1B6833603C4B1B785BB1FE
:106390003B4A1378052B9BBF137801330023DBB2F4
:1063A0008ABF13701370037032682AB3334B1B78A3
:1063B000002B46D033481378007800283BD043F0B8
:1063C000080331481370326800781378002835D0FC
:1063D00043F0040313702D4B62790978306801256E
:1063E0001D70237943EA0223A27943EA024322681B
:1063F00000F080FD264B1D7026490B78062013BB4C
:10640000FFF768FF0B78B3FA83F35B090B7070BD7D
:106410000D468AE7238940F2E24003FB00009FE734
:10642000284600F037FF9FE71B4B1B78002BBBD0A3
:106430001A4B3360B8E723F00803C2E723F00403E4
:10644000C8E70370C7E7FFF735FFDBE73B3A0020FB
:10645000403A00201A3A0020183A0020303A002032
:10646000173A0020103A00202A3A00206037002016
:10647000503A0020443A0020643A00200A340020B8
:10648000453A0020593A0020583A0020603A00204E
:10649000493A0020003400200B340020053400204D
:1064A00008B5104B1B78E3B90F490B780620ABB940
:1064B000FFF710FF0B78B3FA83F35B090B700B4BFC
:1064C0001A780132D2B2272A88BF25221A70084AC8
:1064D00018781168BDE8084000F08CBCFFF7EAFEB0
:1064E000E8E708BD603A002000340020503A002060
:1064F0004C3A002002F02CB870B5074D002401443E
:10650000E0B2834203D90E5D66550134F8E70349D2
:106510000A70034A137070BD683A0020793A00206F
:10652000783A0020F8B5114B1A7802F0FF00E2B17A
:106530000F4A1978DFF840C00E4F1668C9B2002222
:10654000D0B281420AD9B518387812F80C40285CCC
:10655000844202F10102F3D0002006E0002216205E
:1065600001211A7003F0E4F80120F8BD783A002008
:106570005C3A0020793A0020683A0020524BD3F868
:10658000002170B522B10022C3F8002101229A60D7
:10659000D3F80C21002A00F0968000254B4CC3F85C
:1065A0000C51227802F0FF06002A32D0484B2570A9
:1065B0001A7852B31D70474B474C484801221A7055
:1065C000238940F2E24103FB011101F5967100F0CD
:1065D0003BFE434B22681D80424B43481A60627960
:1065E000237943EA0223A27943EA02433F4A04F1B2
:1065F0001001136000F044FD617D3B4801F01F0174
:1066000000F0EFFD384800F0EFFDBDE8704000F00D
:10661000BBBC01259D60D3F80034002B53D0FFF79D
:1066200081FFC8B1324B4FF4B4502B4398472F4BE6
:106630002C4A304930481B68126809780068257078
:1066400000F058FC2D4A1378DBB2AB4204D116702F
:106650001F4A137000F024FE29490C686378981CC7
:10666000FF2830D8184AD2F80C2422540C6804446D
:10667000150A65700C682044120C82700933214A97
:10668000DBB21370134A107880B11F4B1B786BB1CB
:106690000B681E491B780878C3F38003984212D018
:1066A0000B701B481B49002404700B7013783BB11E
:1066B00000F00AFE184B002118600D2003F038F896
:1066C000164B01221A7070BD00100040603A002085
:1066D0007A3A00205A3A00201A3A0020F562020065
:1066E000183A00204C3A002060370020543A00202D
:1066F00020CE0200503A0020643A0020513A002097
:106700005C3A0020483A00200A340020583A002021
:10671000443A0020593A00203C3A0020473A0020F1
:1067200008B500F0BDFD104B104900221A70104B47
:10673000104A1960104B1A60104B2520187000F099
:1067400059FB0F490F4800F07FFD01210D2002F099
:10675000EFFF01210C2002F0EBFF01211620BDE824
:10676000084002F0E5BF00BF5A3A0020D6BE898E2D
:106770004C3A002055555500543A0020503A00201C
:1067800090D00300A164020038B51E4C1E4A236855
:106790001D78137805F00F052BB1002313701B4AE9
:1067A0001370FFF7BDFF052D0BD006230222082131
:1067B0002068FFF7A1FE00211620BDE8384002F056
:1067C000B7BF00F06DFD2068114B00F10E0200F123
:1067D00022011C4652F8045B43F8045B8A42F9D15B
:1067E00012881A80082106230222FFF785FE63899A
:1067F0003BB1084B01221A7000F066FD064B186091
:10680000D9E738BD643A00205A3A0020443A0020C3
:106810001A3A0020513A00203C3A0020164B1B68DF
:106820001A7802F00302032A03D19A785AB1012A96
:1068300017D0124B1B782BB1114B01221A70114B40
:1068400000221A707047104A53F8031F11605968EC
:106850005160198911819B7A93720C4B01221A7035
:10686000E7E753F8030F0A490860988888809B7906
:106870008B71084BF3E700BF643A00205A3A0020BE
:10688000443A0020453A0020303A00203B3A0020AC
:10689000103A0020173A002010B501210C2002F018
:1068A0001FFF01210D2002F01BFF0121162002F025
:1068B00017FF01210C2002F03BFF01210D2002F007
:1068C00037FF0121162002F033FF4FF0A0410324CF
:1068D000C1F84C471320FFF7EDFCC1F818470F4CE7
:1068E0000620FFF7E7FC20460D4901F030FE0A21A3
:1068F000204600F0E7FC40F20B1004F003F9094BCE
:106900000930186040F20B1004F0FCF8064B093017
:10691000BDE810401860FFF703BF00BFE44100204E
:1069200040420F005C3A0020643A002008B5044859
:1069300000F07AFC034B002283F8482008BD00BF1A
:1069400060370020143700200A46A72330B400F82F
:10695000053C131200F8033C0D4B00F8042C1C8876
:1069600000F8024C1B881B0A00F8013C411F04463A
:106970000023251AADB2AA4204D914F8015B2B44B6
:10698000DBB2F6E783540632024830BC01F0C5BDE5
:10699000183A0020E44100200A46BB2330B400F836
:1069A000053C131200F8033C0D4B00F8042C1C8826
:1069B00000F8024C1B881B0A00F8013C411F0446EA
:1069C0000023251AADB2AA4204D914F8015B2B4466
:1069D000DBB2F6E783540632024830BC01F09DBDBD
:1069E000183A0020E4410020BD4B2DE9F74FD3F8C1
:1069F000002112B10022C3F80021BA4B1B789BB1D1
:106A0000B94B1A7882B100221A70B84B1868B84B8B
:106A10001A1D904202BFB74A12681A6041780931C4
:106A2000C9B20438FFF7B8FFB34B1A7842B100225D
:106A30001A70B24B1978B24B18680438FFF784FF0C
:106A4000B04F3B7893B100F03FFCAF4B1B68C01ACE
:106A5000AE4BDA890A235343984207D901210D200E
:106A600002F066FE00210C2002F062FEA84CDFF866
:106A7000C882264694F84830D3B3A64B1B78BBBBDC
:106A8000A54B1B7803F0FF0593BBDFF8B09222887B
:106A9000D9F80000A1690432043804F055F8A0695F
:106AA00004F038F894F848102A460139D3B28B42E2
:106AB00002F101020BDADD1D581C56F825C09D1DA0
:106AC00046F825C036F8100026F81300EEE7D9F88E
:106AD000003053F8043C434507D1FFF755FE96F8C4
:106AE0004830013B86F84830C4E7FFF797FEF6E7E9
:106AF0008A4DDFF84C92DFF84C82284601F0FCFC0E
:106B0000002800F02181284601F0F9FCC0B2AA2833
:106B100000F0CE8051DCA62800F0D38043DC66284C
:106B2000EBD101220DF105012846FFF7E3FC9DF8AA
:106B30000530DFF800A2002B00F0A6809AF80030A4
:106B400003F0FF04002BD8D100F0AAFB724B4FF0EA
:106B5000010B8AF800B01C706E4B3C701C70704BBF
:106B60001C70704B1C70704B214616201C7002F07C
:106B7000DFFD21460C2002F0DBFD59460D2002F01E
:106B8000D7FD5946042002F0D3FD96F8483004F1B1
:106B9000010AE4B2A34275D9063456F8240003F082
:106BA000B9FF5446F1E7A72824D0A928A5D15F4909
:106BB00001222846FFF79EFC9FE7AE287BD012DC1F
:106BC000AD289AD101220DF105012846FFF792FC6C
:106BD0009DF8053003F0010288F80020544AC3F301
:106BE0004003137089E7AF2868D0CC2885D10122F3
:106BF0003C49DEE74F4B1B7803F0FF0A002B7FF484
:106C00007CAF02220DF106012846FFF773FCBDF8A8
:106C100006B0BBF5877FBFF470AF0BF1050003F042
:106C200071FF0BF10102014604462846FFF762FCA2
:106C3000BDF806105346524618B2884203F10103CC
:106C400003DA205C0244D2B2F6E7635C934214D1CB
:106C500096F848300C2B08D89A1D26F8131046F8E1
:106C60002240013386F8483047E7204603F052FFC0
:106C7000A121284601F048FC3FE7204603F04AFFE7
:106C8000A821F6E70023EDE79AF80020002A3FF458
:106C900034AF214A8AF800301370114AC2F800312B
:106CA000C2F80C3193601B4A1370FFF739FD24E7DB
:106CB000012249467DE7012241467AE701221C492B
:106CC00077E701220DF105012846FFF713FC9DF837
:106CD0000530C72B7FF411AF1320FFF7FBFA0CE749
:106CE000001000405B3A0020493A0020403A002062
:106CF000013400204C3A0020473A0020483A002056
:106D00005C3A00205A3A00203C3A00201A3A00200F
:106D100014370020443A0020603A0020E44100206B
:106D20003B3A0020173A0020513A00200B34002053
:106D3000593A0020463A0020D6BE898E643A002097
:106D40000A340020583A00200E4B1B78ABB10E4B92
:106D50001A7892B90D4A0E48106001221A700D4C33
:106D60000D4B0E4A1B681268217800F0C3F8237897
:106D7000262B8CBF25230133237040BF20BF03B0D7
:106D8000BDE8F08F463A0020603A0020643A0020C7
:106D900005340020503A0020543A00204C3A00209C
:106DA00025280AD026280AD027280AD00A28D4BFA6
:106DB000023003304000C0B27047022070471A20F2
:106DC0007047502070470000084BD3F8502562B13F
:106DD000074A0221C2F880100022C3F810210122C4
:106DE0001A61D3F81021002AFBD070470010004030
:106DF00000E100E070B506460C46FFF7E5FF4FF0F6
:106E000080430022C3F8002101221A60D3F8002138
:106E1000002AFBD0324B04220025C3F80C25C3F80E
:106E20002C55D3F8302542F00102C3F83025032257
:106E3000C3F810253046FFF7B3FF220EC3F808054C
:106E4000C3F85465C3F824252202C3F81C254FF467
:106E50008472C3F81425234AC3F81825D3F85026A2
:106E600042F00102C3F8502640F25B62C3F83825B5
:106E700040F20312C3F834251B4AC3F83C251B4AD1
:106E80001168081F106001F8044C1168C4F3072052
:106E900048701168C4F3074088701168C4F3076430
:106EA000CC701168043111600822C3F80415C3F8CE
:106EB00004230F4A602182F801130221C2F88011D5
:106EC00011600122C3F800515A60D3F80021002A52
:106ED000FBD00022C3F80C2101229A6070BD00BFD4
:106EE00000100040FB000302555555005C3A00209D
:106EF00000E100E02DE9F041204C0026C4F80062DA
:106F000015460F469846FFF75FFF1D4AC4F8040573
:106F10000223C2F8803113600423C4F80C353846CC
:106F2000C4F84465FFF73CFF164AC4F80805116829
:106F3000C4F854750323C4F800320B1F136001F822
:106F4000045C1368C5F3072159701368C5F3074142
:106F500099701368C5F30761D97011682B0E04315D
:106F600011602D02C4F824350123C4F81C55C4F85F
:106F70003C85C4F800612360BDE8F081001000404A
:106F800000E100E05C3A00200E4B1A680E4BC3F89B
:106F900004250E4A02210120C2F88010C3F8000225
:106FA000C2F8801111600022C3F810211861D3F8D3
:106FB0001021002AFBD00022C3F8002101225A60D0
:106FC000704700BF5C3A00200010004000E100E084
:106FD00070B52526002506FB0101E81890FBF6F4A4
:106FE00006FB14000C5C944204D00135252DF4D12D
:106FF0004FF0FF3070BDF8B51F46002305460E4622
:10700000FFF7E6FF3A460446034631462846FFF7B7
:10701000DFFF031B8442A8BF25331846F8BD2DE9C6
:10702000F04106460D461746984600242146434641
:107030003A463046FFF7DFFF285501340C2CF5D1D6
:10704000BDE8F081F0B5002423462526C51895F843
:10705000E151012D1FBFD0F89C7293FBF7F507FBA0
:1070600015352D180EBF135595F8BC511555013423
:107070000B44252C93FBF6F506FB1533E6D1F0BD4A
:107080002DE9FF47002301AEC6E9013300F2E11705
:10709000044601933846DA1003F007058A5C013391
:1070A0002A4102F00102252B00F8012BF3D101F156
:1070B00025020023C84311F8015B012D01BFE5182B
:1070C00000EB010C85F8BCC101338A42F3D1C4F84E
:1070D0009C32A04605254246294620460135FFF749
:1070E000B1FF112D08F12508F5D1B9464FF0000880
:1070F00019F8013B012B4DD104F5DE702346002524
:107100000022114613F801C0C44501D1EABB012297
:1071100001312529F6D125339842F1D1D5BBC4F8E8
:10712000A082BA461AF8013B012B30D12B46D4F885
:10713000A02231462046FFF772FF0022134601329B
:10714000B11811F8010C114616F801C0013184453F
:1071500008BF01230C29F7D10B2AF0D1BBB9C4F821
:10716000A45204F5027204F5277142F8043B9142DF
:10717000FBD10523F21812F8052C823244F8223094
:107180000133112BF6D101200AE01546C3E7013582
:10719000252DC7D108F10108B8F1250FA8D100208D
:1071A00004B0BDE8F08730B500221346DC1003F0D0
:1071B00007050C5D2C41E40742BF8418013284F8B6
:1071C000BC310133252BF1D1C0F89C224B1E00F2BB
:1071D000E110243113F8012F00F8012B8B42F9D173
:1071E00030BDC0F8A81270470023C0F8AC32704719
:1071F000D0F8AC32D0F8A82225211A4492FBF1F342
:1072000001FB1323C218C0F8AC3292F8E121012A25
:1072100008D0D0F89C1293FBF1F201FB1233184412
:1072200090F8BC311846704770470000044B0022AC
:10723000C3F84021034B1B6803B11847704700BFD8
:1072400000B001407C3A00200F4B10B518600F4B86
:107250000F484FF000640322C0F88041C3F80825AE
:107260004FF48032C3F84015C3F8042304210122EF
:10727000C3F80022C3F810156021046080F81B13C6
:10728000DA601A6010BD00BF7C3A002000B00140F7
:1072900000E100E0014BC3F84005704700B0014039
:1072A000064B4FF00062C3F88020054B0022C3F864
:1072B00040210122DA605A60704700BF00E100E01F
:1072C00000B001408160704708B500F0DBF94FF471
:1072D0007A72A0FB0223900A40EA835008BD0000A6
:1072E0002DE9F041044600F07DFE314B314D1A6826
:1072F000314E01321A602A68002A4FD12C601B6877
:10730000012B25D12D48DFF8EC802D4F02F02FFA0C
:107310002C4802F02CFA2C4802F029FA2B4802F0F3
:1073200026FA2B4802F023FA404602F020FA3846AB
:1073300002F01DFA274802F01AFA274802F017FA5D
:10734000264802F014FA264BC3F80080254B1F6034
:10735000254A136801331360244AE3631168E36A22
:107360008B4288BF1360154A142000FB0320211DA7
:1073700002F00BFA00F040FE33686BB12B68DA6A5A
:10738000E36A9A4208D21A4B4FF080525A6040BFCB
:10739000BFF34F8FBFF36F8FBDE8F0813368002BD1
:1073A000D6D12B68DA6AE36A9A4298BF2C60CFE79D
:1073B000F03A0020803A0020503B00208C3A002018
:1073C0001C3B0020A03A0020B43A0020C83A00201C
:1073D000DC3A00203C3B0020683B0020543B00206E
:1073E000843A0020883A0020003B0020043B002023
:1073F00000ED00E0083B0020094B0A4A1B681268B8
:10740000D06A50B9084A1268012A07D833B9074B25
:107410001868074B1B68C01A70470020704700BFF0
:10742000043B0020803A00208C3A0020343B0020AE
:107430007C3B0020064A13681968064B19B94FF0C7
:10744000FF321A6070471268D268D2685268F8E753
:10745000843A0020343B00202DE9F047DDE909742F
:1074600096000D4632468046A521206B994603F0D2
:107470008FFB236B043E1E4426F007066B1E04F1AF
:107480003402073513F8011F02F8011B197809B1FE
:10749000AB42F7D1089D042D28BF04254FF0000A08
:1074A000E562C4E9115A201D84F83BA002F06AF994
:1074B000C5F1050504F1180002F064F9C4F84CA008
:1074C0002461A561646284F850A04A464146304672
:1074D00000F050FD206007B13C60BDE8F08710B5BA
:1074E00090F8513004463BB9006B02F091F9204608
:1074F000BDE8104002F08CB9012BF9D010BD00009E
:10750000F8B5164B164E1C680546306804300F4619
:1075100002F05EF96B1C334607D137B13168114870
:107520000431BDE8F84002F030B91A6864195460BB
:1075300007D30D4A10681968BDE8F840043102F01D
:1075400030B90A4A10681968043102F02AF9084B68
:107550001A68A24288BF1C60F8BD00BF7C3B0020B7
:10756000803A0020543B0020883A0020843A0020D2
:10757000343B002030B587B0DDE90B458DB194B1C7
:107580002C63022485F8514005AC01940A9C0295B5
:107590000094FFF761FF2846FFF7A2FE059807B0A9
:1075A00030BD2846FBE72046F9E72DE9F0430746C2
:1075B00085B0900088461646994602F01AF90546AD
:1075C000E8B1542002F015F90446A8B1002380F870
:1075D00051300D9B056301930C9B02900093324642
:1075E0004B4641463846FFF737FF2046FFF778FE07
:1075F000012005B0BDE8F083284602F009F94FF0FC
:10760000FF30F6E710B588B0002407AA06A905A840
:10761000CDE9054400F052FF059B0293069B079AB3
:107620000E490F48CDE900432346FFF7A3FF0D4B5A
:10763000186080B100F052FB01280CD1402383F385
:107640001188094B4FF0FF321A60084B1860084B45
:107650001C6000F0A1FC08B010BD00BF26CE0200E7
:1076600061780200303B0020343B0020503B00207A
:107670007C3B0020024A136801331360704700BF4F
:10768000FC3A0020014B1868704700BF7C3B00208B
:10769000024A136818441060704700BF7C3B00200A
:1076A0002DE9F84F2E4B1B68002B53D12D4B1D6835
:1076B00001351D605DB92C4A2C4B116818681060AB
:1076C0002B4A1960136801331360FFF7B3FE294F8B
:1076D0003B68AB424FF0000607D9274B1B68002BD5
:1076E0000CBF30460120BDE8F88FDFF87C90DFF852
:1076F00094A0DFF894B0D9F800301B681BB94FF0A4
:10770000FF333B60E9E7D9F80030DB68DC68636889
:107710009D42F6D304F10408404602F059F8A36AEA
:107720001BB104F1180002F053F8E36ADAF8002004
:107730001420934200FB03B0414688BFCAF80030D2
:1077400002F023F80D4BE26A1B68DB6A9A4228BFFD
:107750000126D0E70A4A1368013313600026BCE70C
:10776000FC3A00207C3B0020843A0020883A00202C
:10777000383B0020343B0020803B0020803A002032
:10778000F83A0020043B00208C3A00202DE9F0411B
:1077900000F028FC294B1A68013A1A601C682CB1C9
:1077A000002400F029FC2046BDE8F081244B1B6832
:1077B000002BF5D0234D244EDFF8A0801DE0EB68B0
:1077C000DC68271D04F1180002F002F8384601F0C9
:1077D000FFFFE36A32681420934200FB03803946BE
:1077E00088BF336001F0D1FF184BE26A1B68DB6A87
:1077F0009A4202D3164B01221A602B68002BDED16D
:107800000CB1FFF717FE134D2C6844B1104E012741
:10781000FFF746FF00B13760013CF9D12C600C4BFB
:107820001B68002BBCD00C4B4FF080525A6040BFFD
:10783000BFF34F8FBFF36F8F0124B2E7FC3A0020F4
:10784000F03A00203C3B0020043B0020803A00201E
:10785000803B0020F83A002000ED00E08C3A002048
:10786000F8B51B4C1B4F1C4D2368EBB91B4B1B6819
:10787000012B08D91A4B4FF080525A6040BFBFF31A
:107880004F8FBFF36F8F00F011FEFFF7B5FD01289A
:10789000E9D9FFF7EFFEFFF7AFFD012801D900F0AE
:1078A0000BFCFFF773FFDEE700F09CFBFB68DE6874
:1078B000301D01F08DFF2B68013B2B602368013BDD
:1078C000236000F099FB3046FFF709FECCE700BFCC
:1078D000F43A0020683B0020F03A00208C3A002067
:1078E00000ED00E0F8B5194B1A68194B12B10122EE
:1078F0001A60F8BD174C1A602268236812681B6B67
:107900009A4204D820682168343100F0CDFD124E2F
:10791000124B32684FF0140C1F460CFB02F1581842
:107920005D5885B1456808316D6845600B449D42DE
:1079300004BF6B684360142303FB02735B68DB685E
:1079400023603260D5E7013AE7E700BFFC3A002048
:10795000803B0020803A0020043B00208C3A00202D
:1079600010B5064B0C461968183101F01AFF204675
:107970000121BDE81040FFF7C3BD00BF803A0020E1
:1079800038B5084B0D4619681446183101F0FDFE54
:10799000002C21460CBF28464FF0FF30BDE8384090
:1079A000FFF7AEBD803A002038B5C368DC6804F14B
:1079B0001805284601F00CFF114B1B68EBB9251D7B
:1079C000284601F005FF0F4AE36A11688B4288BF21
:1079D00013600D4A1420294600FB032001F0D5FE58
:1079E0000A4BE26A1B68DB6A9A4285BF084B01209A
:1079F00000201860FFF71EFD38BD29460548EDE759
:107A0000FC3A0020043B00208C3A0020803A002001
:107A1000803B00203C3B0020034B1B680360034B72
:107A20001B684360704700BF383B00207C3B002050
:107A300070B50C46054600F0D5FA0F4B1A6823685E
:107A4000591C0FD00D482E6800686968864201D025
:107A500091420ED9521A934209D99B1A23602846A3
:107A6000FFF7DAFF002400F0C7FA204670BD0023BC
:107A700023600124F7E700BF7C3B0020383B002057
:107A8000014B01221A607047803B0020084B1868A8
:107A900060B9084B1B6853B9074B1868074B1B6844
:107AA000013B984214BF012002207047002070471C
:107AB0003C3B0020803B0020543B0020F03A00205B
:107AC000054B1B6833B1054B1B68002B0CBF022014
:107AD0000020704701207047503B0020FC3A0020F6
:107AE000F8B5044600282BD01B4AC36A1168C96A3E
:107AF0008B42164627D28269184D002AA1BF3268F0
:107B0000D26AC2F105028261142202FB0353426968
:107B10009A4211D1071D384601F05AFE3368104AC7
:107B2000DB6A1168E3628B420BD81420394600FBF4
:107B3000035001F02AFE02E03368DB6AC3620120D1
:107B4000F8BD1360F1E71368406CDC6AA0422CBFFB
:107B500000200120F4E700BF803A00208C3A00208A
:107B6000043B002038B5044608B9002038BD836CBA
:107B7000C16A426C013B91428364F6D0002BF4D180
:107B8000051D284601F024FE636CE362C3F1050283
:107B9000A261074A11688B4288BF1360054A14200E
:107BA00000FB0320294601F0F0FD0120DEE700BFC5
:107BB000043B00208C3A002070B5044650B3436C5F
:107BC000994238BF1946C36A8B4223D0826C012A7E
:107BD00020D18269104DC162002A4FF0140202FBCD
:107BE00003534269A4BFC1F1050181619A4211D1D9
:107BF000061D304601F0ECFD084AE36A11681420C6
:107C00008B4200FB03503146BDE8704088BF1360D3
:107C100001F0BBBD70BD00BF8C3A0020043B0020CA
:107C2000044B1A681AB119688A6C01328A641868A0
:107C3000704700BF803A0020F7B5114C00F0D2F930
:107C40002568BDB90F4F104E384601F090FD304603
:107C500001F08DFD0D4B0E4A1F600E4B10211E6072
:107C6000202000950C4B01F0A1FE206010B10B49C3
:107C700002F0CEF803B0BDE8F04000F0BDB900BF9F
:107C8000083E00208C3D0020A03D0020843B0020C9
:107C90008C3B0020883B0020B83D00202BCE02000A
:107CA000914208B5416000610AD8D21A83699A42AC
:107CB0000DD2084B011D186801F073FD002008BDAE
:107CC0009A4201D2994202D2011D034BF3E70120EF
:107CD000F5E700BF883B0020843B002010B588B04A
:107CE000FFF7AAFF0E4B18680024B8B107AA06A92F
:107CF00005A8CDE9054400F0EDFB059B0293069B2A
:107D0000019302230093079A064907482346FFF789
:107D100031FC064B1860001B18BF012008B010BDD5
:107D2000083E002030CE0200DD7D02000C3E002027
:107D30007FB50F4C0546206816461A4680B10529C6
:107D4000CDE9001602950DDCFFF7BAFE00230228EC
:107D500008BF089A206818BF1A46694601F05AFE03
:107D600004B070BD0023694601F0E9FEF8E700BFEA
:107D7000083E00202DE9F341164D4FF000082B6816
:107D80001A6832B9144A11682960136002B0BDE85C
:107D9000F081DB68DC681E68271D384601F018FD9D
:107DA000636A20469847E369012BE8D1A36933440D
:107DB0009E4206D2636024613946286801F0F1FCD6
:107DC000DDE70023CDF80080324619462046FFF754
:107DD000AFFFD4E7843B0020883B00202DE9F04F23
:107DE0005D4D89B0A9464FF0000A2A681368002B40
:107DF0004ED0D268D2F800B0584C0393FFF73AFC4B
:107E0000FFF740FC2268564E039B9042804627466F
:107E100040D2FFF7AFFFC4F80080FFF7B7FC4FF088
:107E2000010B002204A9306801F0E2FE0028DCD03A
:107E3000049B002B03DADDE90601059B9847049BB0
:107E4000002BEEDB069C636913B1201D01F0C0FC22
:107E5000FFF718FC3B689842024603D20390FFF7F5
:107E600089FF039A049B3A60092BDAD80BFA03F3D3
:107E700013F4047868D113F0C70F4AD19B06D0D50C
:107E800094F82C30002BCCD1204601F0C1FCC8E77F
:107E90009B46B1E720600BB3834538D8FFF776FCEB
:107EA000D9F80030DB68DC68201D01F091FCE36943
:107EB000012B0FD1A1695B46424659442046FFF78A
:107EC000EFFE38B10023CDF800A05A4619462046EF
:107ED000FFF72EFF636A20469847A0E7214B1B68F7
:107EE0001A68B2FA82F25209ABEB0801306801F06D
:107EF0009DFFFFF74BFC002891D11B4B4FF08052A8
:107F00005A6040BFBFF34F8FBFF36F8F87E70022E8
:107F1000EAE7A169059B20461944FFF7C1FE002846
:107F20003FF47FAF636A20469847E369012B7FF4F3
:107F300078AFA2690599CDF800800A4443464146CE
:107F40002046FFF7F5FE6CE70599A1611346114441
:107F50002046FFF7A5FE64E7843B0020B43D0020E7
:107F6000083E0020883B002000ED00E0402383F322
:107F70001188FEE74FF0807340E90213054B40F88B
:107F80000C3C6FF0020340F8202C40F8243C4438AD
:107F9000704700BF6D7F02000F4C08B5E02384F8E6
:107FA000223000F06DF80D4B00221A60D4F88830B2
:107FB0000B4A43F47003C4F88830536843F04043DD
:107FC0005360236943F01003236100F0F9F8402364
:107FD00083F31188FEE700BF00ED00E0103E0020B3
:107FE00030EF00E0402383F31188024A1368013325
:107FF00013607047103E0020034A1368013B136072
:108000000BB983F311887047103E002073B5194BEC
:1080100000221A601B680193019BEFF31186402335
:1080200083F31188144BD3F80445C3F8002103F5FA
:1080300080731B680093009BFFF724FB241A24F035
:108040007F44012C04D9FFF73BFD022818BF01240F
:10805000002514F1FF3409D225B1084B4FF08052AE
:108060005A6040BF86F3118802B070BDFFF718FB5D
:108070000543EEE7401101400010014000ED00E033
:108080000A4B0B491F22C3F808250122C3F8042319
:108090000A601A600222C3F84423064BE02283F8E8
:1080A00011234FF400321A60704700BF00100140E6
:1080B0000810014000E100E0F0B5054685B0EFF39F
:1080C000108072B6374CA36883B90123A360364B86
:1080D0003649D3F880200A402260C3F88010D3F8D4
:1080E000842062604FF0FF32C3F8842000B962B68A
:1080F0002F4FD7F80465FFF7C9FC3B46002841D055
:108100002C49A94228BF2946721822F07F4201203B
:10811000C7F80803C7F84025274A002010601068F8
:10812000019001984FF48030C7F80403BFF34F8FDC
:108130003DB11D4820BFD0F80071D0F804513D4337
:10814000F8D04FF48030C3F80803002010601268A4
:108150000392039A194A106012680292029A01224D
:10816000C3F80423D3F804359B1B23F07F408842D7
:108170000D4B4FF4003228BF0846C3F8802108B1E8
:10818000FFF786FAA3685BB1EFF3108372B6064A75
:1081900021681160616851600022A26003B962B673
:1081A00005B0F0BDC84A002000E100E0FC06FFBDBC
:1081B00000100140FDFFFF0040110140001101408F
:1081C0000748006880F3088862B661B6BFF34F8F36
:1081D000BFF36F8F4FF0E00080F3118800DF00BF26
:1081E00000600200064B19680868B0E8F04F80F3A1
:1081F0000988BFF36F8F4FF0000080F3118870473C
:10820000803A0020EFF30980BFF36F8F144B1A6898
:108210001EF0100F08BF20ED108A20E9F04F10600B
:108220004DF8043D4FF0400080F31188BFF34F8FAD
:10823000BFF36F8FFFF756FB4FF0000080F31188FC
:1082400008BC19680868B0E8F04F1EF0100F08BFAE
:10825000B0EC108A80F30988BFF36F8F704700BFBE
:10826000803A00200A490B4A0B4B9B1A03DD043B62
:10827000C858D050FBDC094809494FF0AD320260C4
:1082800004300439FBD100F071F8FDF7D9FF00008C
:10829000CCD2020000340020F836002000F8032081
:1082A00000080000FEE7FEE7FEE7FEE7FEE7FEE768
:1082B000FEE7FEE7FEE7FEE708B5FEF7EDFA074C3E
:1082C000074DFEF791FB002000F0D4F9002CF8D008
:1082D000002DF6D0AFF30080F3E700BF00000000F0
:1082E0000000000007B501F0C7F901F0C2FD104B16
:1082F000104C13B1AFF3008020600F4B01930123AA
:1083000022880E4900930E480023FFF74EF901F032
:1083100085F9FFF777F9BFF34F8F0A490A4BCA680F
:1083200002F4E0621343CB60BFF34F8F00BFFDE761
:10833000000000000C340020143E002038CE020063
:10834000B982020000ED00E00400FA05054B1B684D
:10835000082B01BF044B1868B0FA80F0400918BF21
:1083600000207047300100103401001008B54FF0B4
:1083700080430022C3F80C21C3F81021C3F838252C
:108380004FF0805203F54043D2F80414C3F820158F
:10839000D2F80814C3F82415D2F80C14C3F8281521
:1083A000D2F81014C3F82C15D2F81414C3F83015F1
:1083B000D2F81814C3F83415D2F81C14C3F84015B9
:1083C000D2F82014C3F84415D2F82414C3F8481581
:1083D000D2F82814C3F84C15D2F82C14C3F8501551
:1083E000D2F83014C3F85415D2F83414C3F8601519
:1083F000D2F83814C3F86415D2F83C14C3F86815E1
:10840000D2F84014C3F86C15D2F84424C3F8702590
:10841000FFF79CFF10B11B4B1B4A1A60FFF796FF3A
:1084200018B11A4BFB22C3F81825FFF78FFF48B18C
:108430001749184B0A681B6822F00F0203F00F035C
:1084400013430B60FFF782FF18B1134B4FF4007218
:108450001A604FF08043D3F80024D20744BF6FF076
:108460000102C3F800240D4AD2F8883043F47003A7
:10847000C2F88830BFF34F8FBFF36F8F084B094AA4
:108480001A6008BD8C5600404881030000F000408F
:10849000E40E0040580200104096024000ED00E05B
:1084A000103400200090D0037047704708B5024B8D
:1084B0000BB1AFF3008008BD00000000034B036068
:1084C000034B0B6064231360704700BF1C3E002009
:1084D000703E0020034B0360034B0B60642313606A
:1084E000704700BF0040002054400020014B012293
:1084F0001A707047183E0020002000F057B808B5E9
:10850000002000F05DF808BD002000F093B808B529
:108510000021084600F078F808BD70B50E461546F3
:1085200014467CB1002000F025F858B122463146AF
:10853000002000F091F8241A064403D0002000F037
:1085400099F8EEE7281B70BD002000F093B8704743
:10855000002000F04BB80000044B4FF47A72002169
:10856000C3E90112024A1A60704700BFE4410020CB
:1085700048CE0200044A4FF4567303FB00200079F2
:1085800000F00100704700BFF4410020064A4FF49C
:10859000567303FB002000F10803806808609A8886
:1085A0009B798B718A807047F4410020034A4FF415
:1085B000567303FB0020008B704700BFF44100207E
:1085C00007B5094A4FF4567303FB00200DF107016C
:1085D000103000F00DFA20B19DF8070003B05DF8EF
:1085E00004FBFF20FAE700BFF441002010B5054C62
:1085F0004FF4567303FB004092B2103000F01FFAA4
:1086000010BD00BFF441002007B5094A4FF456736E
:1086100003FB002089B20DF10702103000F02EFAA2
:1086200020B19DF8070003B05DF804FBFF20FAE7D6
:10863000F441002013B502AC064A04F8011D4FF4C2
:10864000567303FB002021460122243000F05FFA1C
:1086500002B010BDF441002010B5054C4FF4567324
:1086600003FB004092B2243000F051FA10BD00BF6D
:10867000F44100202DE9F041154F4FF45674444366
:108680003E190020B17800F027FE804610B100208E
:10869000BDE8F08104F546753D4404F12400402214
:1086A0002946384400F0CBF9034608B90120EFE72A
:1086B0003279D207EBD52A46B178404600F0ACFDBE
:1086C0000028F3D1034B1B68DB07E0D500BEDFE7D2
:1086D000F4410020F0ED00E037B5194C4FF456722C
:1086E0000021204602F054FAFF2363714FF4E13376
:1086F0000125A3600823A3734FF480722B4604F175
:108700003801009504F1100000F057F904F50E71DE
:10871000284601F0FFF90023206200934FF4807295
:108720002B4604F59C7104F1240000F046F904F591
:108730002271284601F0EEF9606303B030BD00BF3E
:10874000F441002010B5074C002304F11000236011
:10875000237100F0F3F904F12400BDE8104000F0AB
:10876000EDB900BFF4410020F7B58B79022B064626
:1087700015465CD1CB79002B5BD0073BDBB2F72BE6
:1087800057D92F4FBB78002B57D18B783B700C7883
:1087900009230C4413806378242B0DD0052B1AD1A8
:1087A0002146304600F006FD68B9264B1B68D90704
:1087B00000D500BE202027E023782A8813442B8090
:1087C00023781C44E7E7A3787B7023782A88134436
:1087D0002B8023781C446378042B1AD163790A2BED
:1087E00017D123782A8813442B802178164B0093C5
:1087F000022201332144304600F0A2FB30B1114B7C
:108800001B68DA0700D500BE03B0F0BD2B880E331D
:108810002B8040230D4AF978304600F0FDFC50B91A
:10882000084B1B68DB0700D500BE2120ECE71520B4
:10883000EAE71620E8E70020E6E700231B70FFDEEA
:10884000F4410020F0ED00E0F6410020CC4400208F
:1088500038B50C46097801F06003202B054648D155
:108860006378A3F12002012A27D8E388A3B92178ED
:108870000023C1F3C0111A4681F00101284600F01F
:108880007BFC6378202B05D11B4B1BB11B490020BF
:10889000AFF3008000200FE0072B28BF0723C90992
:1088A000164A00F069FC164B4FF0FF31186801F0D2
:1088B00019FA0028DBD10B2038BD222B15D100235B
:1088C000C1F3C0111A4681F0010100F055FC0D4BB7
:1088D000618819710C4B002BDCD0C1F340020020E1
:1088E00001F0010101F01AFBD4E7002100F0D8FCEF
:1088F000D0E71E20E0E700BF00000000FC410020A0
:108900000C4A0020F44100201D9F02002DE9F04791
:108910001C4CE2788A42804602D00020BDE8F087F5
:108920006779DFF870A003F536764FF4367504F1F9
:108930001009B54216D1144B2BB1238B9BB213B146
:108940000020AFF300804023104AE178404600F059
:1089500063FC0028E1D10E4B1B68DB0700D500BE8D
:108960002120DBE76119484600F09FF8BAF1000FBB
:1089700006D0635DBB4203D139460020AFF30080CF
:108980000135D6E7F441002000000000CC4400206F
:10899000F0ED00E000000000006920B100231A465D
:1089A000194601F037B87047006908B518B14FF0A3
:1089B000FF3101F097F9012008BD2DE9F04104468F
:1089C000884617461E46FFF7EFFF054668B19DF83B
:1089D0001830A37300232381C4F800806381A7802B
:1089E000E680A3812046FFF7D7FF2846BDE8F08147
:1089F00003899BB270B504460E4613B9002528467C
:108A000070BDFFF7D1FF05460028F7D0E288236844
:108A1000A189304602FB013102F096F8A389A188B2
:108A20005A1C92FBF1F301FB13239BB2A381238910
:108A3000013B9BB223812046FFF7AEFFDFE72DE924
:108A4000F0410489A4B205468846164684B10389DC
:108A50009A4288BF06894FF0000788BFB6B2BCB201
:108A6000A64205D941462846FFF7C2FF013710B993
:108A70002046BDE8F081EB889844F0E738B503461E
:108A800010461A8991420ED29C899D88DA881B680B
:108A9000214491FBF5F405FB141102FB013102F0B6
:108AA00053F8012038BD0020FCE7038982889A42F0
:108AB00070B504460E4604D1837B13B900252846C1
:108AC00070BD2046FFF770FF05460028F6D0E2880B
:108AD00023686089314602FB003002F035F8638973
:108AE000A1885A1C92FBF1F301FB13239BB2638113
:108AF0002389994215BF2389638901339BB216BF2D
:108B00009BB2A38123812046FFF746FFD7E72DE9DB
:108B1000F04107460E46144652B1904600254545A1
:108B2000ACB205D031463846FFF7BFFF013510B96A
:108B30002046BDE8F081FB881E44F0E738B50446C6
:108B4000FFF732FF054630B10023238120466381C1
:108B5000A381FFF721FF284638BD000038B50A4C35
:108B600005462046002300F8013B1022FF2102F0B9
:108B70000FF804F111001022FF2102F009F8284635
:108B8000BDE83840FFF7DEBD4C450020C1F10101D2
:108B900000231A46C9B200F0EFBA08B513463AB13D
:108BA00000231A4600F0CBFF003018BF012008BD9B
:108BB0004FF0FF3200F02EFFF6E7000083B54FF0D4
:108BC00000089B4CC1469B4D99492868C4F8089001
:108BD0004FF0FF32C4E9009901F00AF86378062BE0
:108BE00040F0DE802179257811F07F0640F0AD80DD
:108BF0006279062A43D1E3881A0A022A25D0032A79
:108C000028D0012A36D18C4B1B68196869B312230E
:108C100066899E4228BF1E46002E2BD0B6F5807F67
:108C2000D1D83246854801F08FFF2179834A3346F7
:108C3000C909284600F0A0FA814B4FF0FF311868AF
:108C400001F050F80028BED03BE07B4B1B68596810
:108C50004B88DDE77B4A9189DBB299420AD9926859
:108C600052F8231031B10B78D2E7774B1B68D90744
:108C700000D500BE0021284600F012FBA3E7082A19
:108C800005D1724B6D4A1B7813700123D0E7052A7A
:108C900004D1A179284600F06DFA94E7092AE9D1B8
:108CA000A6792846314600F066FA634A674B126897
:108CB0001E7057689A4657B9634B1B68DA0700D590
:108CC00000BE21792846C909FFF760FF7BE77B8852
:108CD00007F109061F44BE4202D3AFF30080F0E75C
:108CE00073780B2B02D133781E44F4E7042BE3D1C5
:108CF0007379022BE0D1B37853445A78FF2ADBD141
:108D000002AA314622F8028D284683F80180FFF737
:108D10002BFD0028D0D1BDF806C0BCF1080FCBD97F
:108D200033465A78052A08D19978CA090AEBC20253
:108D300001F07F010A4482F811801A78104480B251
:108D400084451344EDD86644C5E701F01F010129AD
:108D50000AD1227A3D4B13445B78002B8AD13C49DF
:108D60002846FFF775FD2EE7022E83D1627942B9BE
:108D7000217A284600F07CFA304A21791080334667
:108D800056E7012A04D1217A284600F099FA98E79B
:108D9000032A7FF46FAF217A284600F081FA90E72A
:108DA000072B11D12179294BC80901F07F0203EB70
:108DB000C00313445B7C002B7FF405AFA36862798A
:108DC0002078FFF7A3FDFEE6012B0CD12078FFF7FA
:108DD000C5FE0021286800F0B3FD194B002118687A
:108DE00000F0AEFDEFE6022B0ED12078FFF7B6FEC5
:108DF0000021286800F0A4FD114B0021186800F044
:108E00009FFDAFF30080DEE6032B3FF4DCAE082BC2
:108E100006D16368002B3FF4D6AEA0689847D2E62F
:108E2000094B1B68DB077FF5CEAE00BECBE600BF6B
:108E3000DC48002070450020D03400200C49002080
:108E40000C4A0020D4340020F0ED00E04C45002016
:108E5000E048002030B5002085B000F089F9184ABC
:108E6000184D51881346002433F8080B00945268BB
:108E700000F09CFD2860F0B1032300932246124BC2
:108E80002146012000F092FD104B18602B68A3B121
:108E90000F4800F11003C28802938368019383880E
:108EA0000093C16800682346FEF764FBFFF714FCDB
:108EB000204605B030BD0E20FBE70F20F9E700BFCC
:108EC0001434002070450020344600200C4A002055
:108ED0006C34002010B54378013B04460A46062B4B
:108EE0001CD8DFE803F00404041B1B040B00114B27
:108EF0000146BDE810401868FFF74FBE017999B9E7
:108F0000836823B10C4B18684AB100F047FE6379BF
:108F100023B10A4B1B68DB0700D500BE10BD13460A
:108F2000114600F077FDF2E7024B01461868FFF7A3
:108F300034FEECE7704500200C4A0020F0ED00E024
:108F40002DE9F843089D07460C46904699460226AF
:108F50006378052B04D1E17801F00301414508D085
:108F6000104B1B68DA0700D500BE1C2018E0012654
:108F7000EEE72146384600F01DF930B9094B1B6871
:108F8000DB0700D500BE20200AE0A178CB0914BF82
:108F9000297089F800102178012E0C44E7D10020B7
:108FA000BDE8F883F0ED00E01FB50023019308232E
:108FB0008DF80530044BCDE9020101A91868FFF7CF
:108FC000ECFD05B05DF804FB70450020024B1B680A
:108FD000DB0700D500BE7047F0ED00E00D4B93F8C5
:108FE000B420014662B10C4A5268C2F308021AB1B9
:108FF00001220A48FFF7D8BF93F8B420002AFBD11A
:10900000012283F8B4200A60BFF36F8FBFF34F8F44
:10901000704700BF104A002000ED00E0DD8F020025
:1090200038B5134D134BEA88AC88297AA41AA4B238
:10903000402C28BF40242A6889B9C3F800270122A0
:10904000C3F80447DA64BFF36F8FBFF34F8F2B6809
:1090500023442B60EB881C44A4B2EC8038BDC3F8D9
:1090600000260548C3F80446FFF7B8FFEFE700BF46
:10907000104A0020007002400470024038B5104AC7
:1090800000F59473451E52F823400E4B182101FB46
:109090000535142303FB0023E968C3F80017E4B285
:1090A000C3F80447084B03EB8000FFF797FFEB681A
:1090B0002344EB606B8A1C44A4B26C8238BD00BFB1
:1090C00000700240104A002028700240114B411EDF
:1090D000182202FB013110B4CA8B8B8B8C699B1A4E
:1090E00091F820209BB2934228BF1346142242439A
:1090F00002F1804202F51C32C2F80046C2F8043682
:1091000023448B61044B5DF8044B03EB8000FFF7B5
:1091100065BF00BF104A0020047002401FB5002345
:10912000CDE90133039107238DF80800012101A83F
:109130008DF80530FFF7CEFE05B05DF804FB0000AA
:1091400000221146930003F1804303F51C330132E2
:10915000082A59609962F5D1034B04485962B82234
:109160009964002101F014BD00700240104A0020F3
:10917000012070477047704738B51D460B4C43B10E
:10918000A3800023E38022602172FFF749FF0120C2
:1091900038BD0748FFF722FF94F8B43013B9FFF742
:1091A00015FFF4E784F8B450F1E700BF104A00203F
:1091B0005070024010B58878097900F07F035A1E7C
:1091C00018245443C0090C2202FB0044104A2244D4
:1091D0001175012202FA03F40E4970B90C339A405A
:1091E000C1F80423D1F814352343C1F81435BFF373
:1091F0006F8FBFF34F8F012010BD02339A40C1F82B
:109200000423D1F810352343C1F81035EFE700BF30
:10921000104A00200070024001F07F0070B5441E2B
:1092200018266643C909104D0C2404FB01642C4424
:1092300023820023E260638291B935446B7D03F0A1
:10924000FF021BB1FFF71AFF012070BD00F59470FB
:10925000064B43F82020BFF36F8FBFF34F8FF3E728
:10926000FFF734FFF0E700BF104A00200070024013
:1092700091B1CA0901F07F03084A0BBF03F5887357
:1092800003F5847302EB830352F8230008BF586888
:10929000003018BF01207047084670470070024038
:1092A000064B31B901225A65BFF36F8FBFF34F8F61
:1092B000704741F48071C3F81815F5E7007002405B
:1092C00031B1044BC3F81815BFF36F8FBFF34F8F45
:1092D000704700BF0070024089B101F07F00431E5B
:1092E00018205843C9090C2303FB0101054B1944FD
:1092F000488A098A814294BF0020012070470846AD
:10930000704700BF104A00202DE9F043984B994E5A
:10931000D3F80003002385B01C4601251F4605FA3B
:1093200003F101420CD09A199200D2F800C0BCF1AE
:10933000000F05D00C431760BFF36F8FBFF34F8F43
:109340000133192BEBD1E6070BD5FFF7F9FE00230C
:10935000012101A8CDE9013303938DF80510FFF732
:10936000B9FD854B23403BB1844B93F8B420002AD0
:1093700040F0D780FFF72AFE25022CD57C4B4FF01A
:10938000000ED3F880C4D3F88474D3F88864D3F87B
:109390008C54D3F89004D3F89414D3F89824D3F8C9
:1093A0009C34CDF804E08DF80C004FF0060E8DF8DB
:1093B0000D1001A801218DF805E08DF808C08DF889
:1093C00009708DF80A608DF80B508DF80E208DF81D
:1093D0000F30FFF77FFD600507D5684B1A7A002A2A
:1093E00040F0A3806648FFF7F9FDE10407D5634B21
:1093F000DA889988914240F2A480FFF711FE5C4F11
:109400005E4E0D250122AA40A5F10C032242D8B2DE
:1094100027D0142101FB0373A5F10D02D3F808171F
:10942000182303FB026E03FB0563A3F592784FF04C
:10943000000C8EF815C098F80080C9B28845A3F5D5
:10944000947340F08380BEF81210B3F800E08E45AC
:109450007CD905F58E7347F823C0BFF36F8FBFF338
:109460004F8F0135142DCDD1E2014AD5404ED6F8AB
:109470006C74C6F86C74BFF36F8FBFF34F8F012508
:10948000DFF8F880A94609FA05F33B42E8B216D0A6
:1094900018216B1E142201FB038302FB0562D2F824
:1094A0000426B3F81EC0624492B2DA8301FB05823F
:1094B000B3F81EC09288624551D9FFF707FE013507
:1094C000082DE0D1DFF8B480112501264FF01809EE
:1094D00006FA05F3A5F110003B42C0B20ED0A5F18B
:1094E000110309FB05F209FB0383A2F5C472598A33
:1094F00032F808208A4238D9FFF7C0FD0135182D0F
:10950000E6D1A3020AD50023CDE90133039301215B
:10951000032301A88DF80530FFF7DCFC05B0BDE89A
:10952000F083002283F8B42026E7DA8899889142F4
:1095300002D9FFF775FD58E7D9880020FFF7EEFD47
:1095400053E7D9880020FFF7E9FD58E7182101FB10
:109550000262518A1980518AFFF7E0FD81E7D98BB9
:1095600040F08000FFF7DAFDA9E75E75C6E700BFAF
:1095700000700240409C0010FCFB1F00104A0020BD
:109580002870024010B50446FEF79AFA01282046DA
:1095900003D1BDE8104001F0BDBABDE8104000F0B5
:1095A00037B9000030B51C4D85B04FF0FF3203A92C
:1095B000286800F01DFB0028F7D00398037A446860
:1095C000052B05D8DFE803F0030D1014191FA04781
:1095D000039B186808B1FFF7D5FF0398FFF7D2FF88
:1095E000E3E7C068A047F3E7D0E90301A047EFE74E
:1095F000D0E90412C068A047EAE7D0E90523D0E922
:109600000301A047E4E7C3690093D0E90523D0E94B
:109610000301A047DCE700BFE84800201FB5002297
:109620000421142000F0D8F9074B0849186003AB57
:109630000193022300934FF4806200230448FDF756
:10964000B4FF05B05DF804FBE848002088CF0200B5
:10965000A5950200BFF34F8F0549064BCA6802F477
:10966000E0621343CB60BFF34F8F00BFFDE700BF45
:1096700000ED00E00400FA05124BD3F84025124B30
:109680001A604FF080430122C3F818259A600F4BEF
:109690004FF40031C3F8801003F1C04303F53C538D
:1096A0004FF48031C3F84813C3F808135A609A6026
:1096B0004FF0A0424FF0FF33C2F80835C2F8083827
:1096C000704700BF00A00040EC48002000E100E02F
:1096D00008B54FF080434E22C3F81C25FFF7BAFFB0
:1096E0002F2814D8104B53F820301F2B86BF03F0BF
:1096F0001F030E4A4FF0A042032908D8DFE801F00B
:109700000210080C03F5E073002142F823107047A3
:1097100003F5E0730C21F8E703F5E0730421F4E7A7
:1097200003F5E0730321F0E794CF0200000300503B
:109730002F2813D80A4B53F820201F2A88BF02F085
:109740001F024FF001038CBF06484FF0A04093402A
:1097500011B9C0F80C357047C0F80835704700BF24
:1097600094CF0200000300500021FFF7E1BF00F199
:1097700008034FF0FF324360C0E902230361002376
:109780000360704700230361704743684B609A6829
:109790008A609A68516099600368086101330360C8
:1097A00070470A68531C30B50AD103695A684A6089
:1097B00091608B605960036808610133036030BDBC
:1097C00000F108035C6825689542EFD82346F9E765
:1097D000D0E9011203698A60826851605968814248
:1097E00008BF5A60002202611A68013A1A601868BC
:1097F000704710B50446FDF73DFF204601F082F9A1
:109800000446FDF7C3FF0CB9FEF74FFE204610BD1E
:1098100010B5044640B1FDF72DFF204601F07AF95E
:10982000BDE81040FDF7B2BF10BD10B50446FEF70D
:10983000D9FBA46BFEF7E0FBB4FA84F0400910BD3D
:1098400070B51546026C866B044642B905689DB931
:109850004068FEF787F965600136A66370BD6DB993
:10986000806801F071F9A368226C13446268A360F8
:10987000934201D32368A3600020EDE7C06801F0A4
:1098800063F9236CE26821685B421A448A42E26011
:109890003EBF62689B18E360022DEDD10EB1013E20
:1098A000EAE73046D8E7034610B41A6C084662B1BE
:1098B000D9685C681144A142D96024BF1968D96095
:1098C000D9685DF8044B01F03FB95DF8044B70476F
:1098D00070B50446FEF786FB94F8455004F1240663
:1098E0006DB2002D14DCFF2384F84530FEF784FBB5
:1098F000FEF778FB94F8445004F110066DB2002D89
:1099000012DCFF2384F84430BDE87040FEF774BBDE
:10991000636A002BE7D03046FEF746F808B1FEF741
:10992000AFF8013D6DB2DCE72369002BE9D030468A
:10993000FEF73AF808B1FEF7A3F8013D6DB2DEE795
:1099400038B504460D46FEF74DFBD4E90F302268CA
:10995000A2604343D1181B1A13446160E3600021E5
:10996000FF23A16384F8443084F845309DB923690E
:109970006BB104F11000FEF717F840B10A4B4FF03D
:1099800080525A6040BFBFF34F8FBFF36F8FFEF717
:1099900033FB012038BD04F11000FFF7E8FE04F1AD
:1099A0002400FFF7E4FEF2E700ED00E010B51C46EE
:1099B00083B10123002908BF2246C4E90F0184F8BE
:1099C0004630194622602046FFF7BAFF9DF808305E
:1099D00084F84C30204610BDF8B506464843503058
:1099E0000D461746FFF705FF044660B1002380F8D7
:1099F000463055B92060C4E90F6501212046FFF7C4
:109A00009FFF84F84C702046F8BD00F150030360BE
:109A1000F1E700002DE9FF470026DFF8F4900192FE
:109A200004468A461F46B046FEF7DCFAA26BE36B9B
:109A30009A4201D3022F1AD13A4651462046FFF7E7
:109A4000FFFE636A1BB104F12400FDF7ADFF40B1D6
:109A50002F4B4FF080525A6040BFBFF34F8FBFF380
:109A60006F8FFEF7C9FA012004B0BDE8F087019DB1
:109A70001DB9FEF7C1FA0020F6E716B902A8FDF7F6
:109A8000CBFFFEF7B9FAFDF7F5FDFEF7ABFA94F858
:109A90004430FF2B08BF84F8448094F84530FF2BF6
:109AA00008BF84F84580FEF7A7FA01A902A8FDF7D0
:109AB000BFFF30BBFEF796FAA26BE36B9A420ED162
:109AC000FEF79AFA019904F11000FDF749FF2046CC
:109AD000FFF7FEFEFDF75AFE48B10126A4E7FEF7A8
:109AE0008BFA2046FFF7F4FEFDF750FEF5E74FF046
:109AF0008053C9F8043040BFBFF34F8FBFF36F8F5F
:109B0000EBE72046FFF7E4FEFDF740FEB3E700BFBA
:109B100000ED00E013B5002200900B460120114635
:109B2000FFF744FF044638B10023C0E90033C360A7
:109B30001A461946FFF76EFF204602B010BDF8B571
:109B400005461746EFF31186402282F31188806B99
:109B5000EA6B904201D3022B1ED195F845401A467C
:109B600064B22846FFF76CFE631C10D16B6A0BB918
:109B7000012009E005F12400FDF716FF0028F7D0C9
:109B8000002FF5D00120386086F31188F8BD01342C
:109B900064B285F84540EBE70020F5E738B50C46A0
:109BA000EFF31185402383F31188826BC36B9342DB
:109BB0001BD990F8453001325BB282635A1C0FD139
:109BC000436A0BB9012008E02430FDF7EDFE0028C0
:109BD000F8D0002CF6D00120206085F3118838BD24
:109BE00001335BB280F84530ECE70020F5E7000078
:109BF0002DE9F04385B00026DFF8E4900192044699
:109C000088463746FEF7EEF9A56BDDB141462046A2
:109C1000013DFFF748FEA56323696BB104F1100015
:109C2000FDF7C2FE40B12E4B4FF080525A6040BF4C
:109C3000BFF34F8FBFF36F8FFEF7DEF9012005B042
:109C4000BDE8F083019D1DB9FEF7D6F90020F6E7C7
:109C500016B902A8FDF7E0FEFEF7CEF9FDF70AFD02
:109C6000FEF7C0F994F84430FF2B08BF84F8447025
:109C700094F84530FF2B08BF84F84570FEF7BCF917
:109C800001A902A8FDF7D4FEF8B92046FFF7CDFDE3
:109C9000A8B1019904F12400FDF762FE2046FFF708
:109CA00017FEFDF773FD40B94FF08053C9F804303B
:109CB00040BFBFF34F8FBFF36F8F0126A2E720464F
:109CC000FFF706FEFDF762FDF7E72046FFF700FE0F
:109CD000FDF75CFD2046FFF7A8FD0028EDD0B5E7B5
:109CE00000ED00E02DE9F04385B00025DFF81C9180
:109CF000019104462F462E46FEF774F9A36BEBB193
:109D0000013BA363236813B9FDF78AFF60602369F1
:109D10006BB104F11000FDF747FE40B13B4B4FF033
:109D200080525A6040BFBFF34F8FBFF36F8FFEF773
:109D300063F90125284605B0BDE8F083DDF804800D
:109D4000B8F1000F03D1FEF757F90025F2E717B974
:109D500002A8FDF761FEFEF74FF9FDF78BFCFEF759
:109D600041F994F84430FF2B08BF84F8446094F81C
:109D70004530FF2B08BF84F84560FEF73DF901A987
:109D800002A8FDF755FE48BB2046FFF74EFDF8B18F
:109D900023683BB9FEF726F96068FDF7A1FE05468A
:109DA000FEF72AF9019904F12400FDF7D9FD2046B8
:109DB000FFF78EFDFDF7EAFC40B94FF08053C9F87C
:109DC000043040BFBFF34F8FBFF36F8F012793E77E
:109DD0002046FFF77DFDFDF7D9FCF7E72046FFF7AA
:109DE00077FDFDF7D3FC2046FFF71FFD0028EDD0DF
:109DF000002D9FD0FEF7F6F8616A19B1236B196840
:109E0000C1F105016068FDF7D7FE9CE700ED00E0B9
:109E1000054B1A6812B19A682AB9012243F8321028
:109E200003EBC20358607047D44A002070B5044663
:109E30000D461646FEF7D6F894F84430FF2B04BFC3
:109E4000002384F8443094F84530FF2B04BF0023EE
:109E500084F84530FEF7D0F8A36B2BB9324629467B
:109E600004F12400FDF78CFD2046BDE87040FFF7AB
:109E70002FBD08B501210320FFF732FC0320FFF7B7
:109E800073FC01210420FFF72BFC0420FFF76CFC7E
:109E9000BDE8084000F000B830B589B008A800253A
:109EA00000F81C5D00F054F808A8184B40F8183D65
:109EB00000F076F800F07EF8154B402283F8272357
:109EC0004FF08043D3F83844E20702D5284600F02B
:109ED0001BF9A30702D5022000F016F94FF08053BA
:109EE0000C495A6E1B6E03A801F06EFB0A4A01234F
:109EF00003A9194411F8011C22F813100133112B86
:109F0000F6D100F0DDF909B030BD00BF09A10200B3
:109F100000E100E054D00200F034002007B508460C
:109F200041B96946FEF732FB009BB3F5966F01D14C
:109F3000FFF7CEFB03B05DF804FB00F180431A6825
:109F4000002A1BBF0022012000201A607047000079
:109F50000F4B1A78D2B902784FF08041C2F3400219
:109F6000C1F88025027802F00102C1F87825094A7B
:109F70001168C90706D4E02182F800130121C2F854
:109F80008011116001221A7003487047034870471E
:109F9000E44A002000E100E00000AD0B0C00AD0B36
:109FA000034B00221A60026802B11A60704700BFBA
:109FB000F84800204FF080434FF46072C3F8042348
:109FC000704700004FF0804310B5D3F80443620798
:109FD00007D54FF48470FFF7B0FF10B11E4B1B681C
:109FE0009847A30608D54FF48A70FFF7A6FF18B16B
:109FF0001A4B00201B689847600608D54FF48C70F8
:10A00000FFF79BFF18B1154B01201B6898472106ED
:10A0100008D54FF48E70FFF790FF18B1104B002059
:10A020001B689847E20508D54FF49070FFF785FF4D
:10A0300018B10B4B01201B689847A3050AD54FF4B4
:10A040009270FFF77AFF28B1054B02201B68BDE82C
:10A050001040184710BD00BFF0480020F448002011
:10A06000F84800200C4B1B78082B12D10B4B1868BA
:10A0700010F00F000DD104331B6803F0F003202B08
:10A0800008D1074B1B6813F0F00F0CBF0120002014
:10A0900070470020704700BFE00F00F0E40F00F0B1
:10A0A000EC0F00F042DF704743DF704744DF70473A
:10A0B00012DF704707B502A8002300F8013DFFF743
:10A0C000F7FF9DF80700003018BF012003B05DF8CE
:10A0D00004FB07B5FFF7EEFF48B101A8FFF7E6FF65
:10A0E0000198003018BF012003B05DF804FB4FF069
:10A0F0008043D3F80C0400F00110A0F10113584282
:10A100005841F1E701207047012813B5024600F0DD
:10A11000A38058D3022854D1614BD3F800241205F0
:10A12000FBD54FF40062C3F80024BFF36F8FBFF379
:10A130004F8F5C4B00211960BFF36F8FBFF34F8FC0
:10A14000594A106803F58E2303F2144300287ED188
:10A1500049F27531116018601160FFF783FF40B15B
:10A160001068524B002874D149F2753111601860A3
:10A1700011604C4B40F2E3721A60043340201860C7
:10A18000BFF36F8FBFF34F8FA3F6040302F1E072AA
:10A19000802102F62242C3F81C15C3F80423444A66
:10A1A00082F82703C2F8841151601A46FFF791FF25
:10A1B0000028FBD00123C2F80435BFF36F8FBFF333
:10A1C0004F8F02B010BD364BD3F80025002AF8D1CE
:10A1D0004FF40062C3F80024BFF36F8FBFF34F8FBB
:10A1E000FFF740FF304B40B11868304A032108BBED
:10A1F00049F2753018601160186018682D4AC02146
:10A20000D0B949F27530186011601860244B0122F2
:10A21000C3F80025BFF36F8FBFF34F8FFFF759FFD0
:10A220000028CED1FFF746FF40B102B0BDE8104094
:10A23000FFF738BF1160E0E71160E7E71E4B1860D9
:10A240001B680193019B4FF080431A60B9E71960C6
:10A2500083E700221A608CE7114BD3F80015002920
:10A26000AFD00021C3F80415BFF36F8FBFF34F8F3A
:10A270000F488024C0F88440D3F80003C3F80803D3
:10A28000C3F80015BFF36F8FBFF34F8FFFF712FFB7
:10A2900020B102B0BDE81040FFF706BF074BD4E77E
:10A2A000007002400078024000EC064014ED0640C9
:10A2B00000E100E014EC0640000100400400004012
:10A2C00010B50B4C237873B9FFF71CFF68B1FEF78C
:10A2D000C1FD28B1074B1B68DB0700D500BE10BDD0
:10A2E00001232370FBE70020F9E72520F7E700BFF3
:10A2F000FC480020F0ED00E081F0004102E000BFEA
:10A3000083F0004330B54FEA41044FEA430594EA35
:10A31000050F08BF90EA020F1FBF54EA000C55EA70
:10A32000020C7FEA645C7FEA655C00F0E2804FEA41
:10A330005454D4EB5555B8BF6D420CDD2C4480EA23
:10A34000020281EA030382EA000083EA010180EA53
:10A35000020281EA0303362D88BF30BD11F0004FA1
:10A360004FEA01314FF4801C4CEA113102D04042D7
:10A3700061EB410113F0004F4FEA03334CEA133312
:10A3800002D0524263EB430394EA050F00F0A7802A
:10A39000A4F10104D5F1200E0DDB02FA0EFC22FA25
:10A3A00005F2801841F1000103FA0EF2801843FA19
:10A3B00005F359410EE0A5F120050EF1200E012A0A
:10A3C00003FA0EFC28BF4CF0020C43FA05F3C01848
:10A3D00051EBE37101F0004507D54FF0000EDCF1C1
:10A3E000000C7EEB00006EEB0101B1F5801F1BD36A
:10A3F000B1F5001F0CD349085FEA30004FEA3C0C6E
:10A4000004F101044FEA445212F5800F80F09A8063
:10A41000BCF1004F08BF5FEA500C50F1000041EB67
:10A42000045141EA050130BD5FEA4C0C404141EB6B
:10A43000010111F4801FA4F10104E9D191F0000F92
:10A4400004BF01460020B1FA81F308BF2033A3F115
:10A450000B03B3F120020CDA0C3208DD02F1140C0C
:10A46000C2F10C0201FA0CF021FA02F10CE002F147
:10A470001402D8BFC2F1200C01FA02F120FA0CFC40
:10A48000DCBF41EA0C019040E41AA2BF01EB045189
:10A49000294330BD6FEA04041F3C1CDA0C340EDC87
:10A4A00004F11404C4F1200220FA04F001FA02F3CA
:10A4B00040EA030021FA04F345EA030130BDC4F188
:10A4C0000C04C4F1200220FA02F001FA04F340EA7D
:10A4D0000300294630BD21FA04F0294630BD94F02E
:10A4E000000F83F4801306BF81F480110134013D15
:10A4F0004EE77FEA645C18BF7FEA655C29D094EA86
:10A50000050F08BF90EA020F05D054EA000C04BF03
:10A510001946104630BD91EA030F1EBF00210020EE
:10A5200030BD5FEA545C05D14000494128BF41F08D
:10A53000004130BD14F580043CBF01F5801130BDF1
:10A5400001F0004545F0FE4141F470014FF000007C
:10A5500030BD7FEA645C1ABF194610467FEA655C2D
:10A560001CBF0B46024650EA013406BF52EA0335CF
:10A5700091EA030F41F4002130BD00BF90F0000FBD
:10A5800004BF0021704730B54FF4806404F13204F9
:10A590004FF000054FF0000150E700BF90F0000FB2
:10A5A00004BF0021704730B54FF4806404F13204D9
:10A5B00010F0004548BF40424FF000013EE700BFA9
:10A5C00042004FEAE2014FEA31014FEA02701FBF39
:10A5D00012F07F4393F07F4F81F06051704732F06B
:10A5E0007F4208BF704793F07F4F04BF41F40021C2
:10A5F000704730B54FF4607401F0004521F0004120
:10A600001CE700BF50EA010208BF704730B54FF0A9
:10A6100000050AE050EA010208BF704730B511F0AA
:10A62000004502D5404261EB41014FF4806404F1E2
:10A6300032045FEA915C3FF4D8AE4FF003025FEA68
:10A64000DC0C18BF03325FEADC0C18BF033202EBEC
:10A65000DC02C2F1200300FA03FC20FA02F001FA46
:10A6600003FE40EA0E0021FA02F11444BDE600BFE9
:10A6700070B54FF0FF0C4CF4E06C1CEA11541DBF98
:10A680001CEA135594EA0C0F95EA0C0F00F0DEF863
:10A690002C4481EA030621EA4C5123EA4C5350EA48
:10A6A000013518BF52EA033541F4801143F4801399
:10A6B00038D0A0FB02CE4FF00005E1FB02E506F02A
:10A6C0000042E0FB03E54FF00006E1FB03569CF07F
:10A6D000000F18BF4EF0010EA4F1FF04B6F5007F85
:10A6E00064F5407404D25FEA4E0E6D4146EB0606F7
:10A6F00042EAC62141EA55514FEAC52040EA5E5080
:10A700004FEACE2EB4F1FD0C88BFBCF5E06F1ED829
:10A71000BEF1004F08BF5FEA500E50F1000041EB60
:10A72000045170BD06F0004646EA010140EA02000D
:10A7300081EA0301B4EB5C04C2BFD4EB0C0541EA2F
:10A74000045170BD41F480114FF0000E013C00F344
:10A75000AB8014F1360FDEBF002001F0004170BD68
:10A76000C4F10004203C35DA0C341BDC04F1140481
:10A77000C4F1200500FA05F320FA04F001FA05F20D
:10A7800040EA020001F0004221F0004110EBD370DA
:10A7900021FA04F642EB06015EEA430E08BF20EA06
:10A7A000D37070BDC4F10C04C4F1200500FA04F3A9
:10A7B00020FA05F001FA04F240EA020001F000413B
:10A7C00010EBD37041F100015EEA430E08BF20EAAE
:10A7D000D37070BDC4F1200500FA05F24EEA020EF6
:10A7E00020FA04F301FA05F243EA020321FA04F025
:10A7F00001F0004121FA04F220EA020000EBD370DC
:10A800005EEA430E08BF20EAD37070BD94F0000FDB
:10A810000FD101F00046400041EB010111F4801F0F
:10A8200008BF013CF7D041EA060195F0000F18BFC0
:10A83000704703F00046520043EB030313F4801FFC
:10A8400008BF013DF7D043EA0603704794EA0C0FB6
:10A850000CEA135518BF95EA0C0F0CD050EA4106CC
:10A8600018BF52EA4306D1D181EA030101F0004149
:10A870004FF0000070BD50EA410606BF1046194671
:10A8800052EA430619D094EA0C0F02D150EA01367D
:10A8900013D195EA0C0F05D152EA03361CBF1046BE
:10A8A00019460AD181EA030101F0004141F0FE415D
:10A8B00041F470014FF0000070BD41F0FE4141F4E1
:10A8C000780170BD70B54FF0FF0C4CF4E06C1CEAE1
:10A8D00011541DBF1CEA135594EA0C0F95EA0C0F96
:10A8E00000F0A7F8A4EB050481EA030E52EA033551
:10A8F0004FEA013100F088804FEA03334FF0805572
:10A9000045EA131343EA12634FEA022245EA11159E
:10A9100045EA10654FEA00260EF000419D4208BF4F
:10A92000964244F1FD0404F5407402D25B084FEAFC
:10A930003202B61A65EB03055B084FEA32024FF4A8
:10A9400080104FF4002CB6EB020E75EB030E22BF05
:10A95000B61A754640EA0C005B084FEA3202B6EBC5
:10A96000020E75EB030E22BFB61A754640EA5C0074
:10A970005B084FEA3202B6EB020E75EB030E22BF04
:10A98000B61A754640EA9C005B084FEA3202B6EB05
:10A99000020E75EB030E22BFB61A754640EADC00C4
:10A9A00055EA060E18D04FEA051545EA16754FEA26
:10A9B00006164FEAC30343EA52734FEAC2025FEA44
:10A9C0001C1CC0D111F4801F0BD141EA00014FF0D3
:10A9D00000004FF0004CB6E711F4801F04BF0143A4
:10A9E0000020B4F1FD0C88BFBCF5E06F3FF6AFAEC0
:10A9F000B5EB030C04BFB6EB020C5FEA500C50F150
:10AA0000000041EB045170BD0EF0004E4EEA1131D2
:10AA100014EB5C04C2BFD4EB0C0541EA045170BDD9
:10AA200041F480114FF0000E013C90E645EA060E1D
:10AA30008DE60CEA135594EA0C0F08BF95EA0C0F4B
:10AA40003FF43BAF94EA0C0F0AD150EA01347FF493
:10AA500034AF95EA0C0F7FF425AF104619462CE76A
:10AA600095EA0C0F06D152EA03353FF4FDAE1046CD
:10AA7000194622E750EA410618BF52EA43067FF41E
:10AA8000C5AE50EA41047FF40DAF52EA43057FF4AE
:10AA9000EBAE12E708B5074B044613B10021AFF344
:10AAA0000080054B1868836A03B19847204602F07E
:10AAB000A5F900BF0000000060D0020070B50D4E87
:10AAC0000D4CA41BA4100025A54209D10B4E0C4C23
:10AAD00002F096F9A41BA4100025A54205D170BD73
:10AAE00056F8253098470135EEE756F82530984757
:10AAF0000135F2E7E4360020E4360020E436002099
:10AB0000F4360020024B0146186800F097B800BFE9
:10AB100014350020024B0146186800F041B800BF10
:10AB20001435002082B001B901A942B14BB11378AC
:10AB30000B601278101C18BF012002B0704710463D
:10AB4000FBE76FF00100F8E710B5431E0A4491429D
:10AB500000D110BD11F8014B03F8014FF7E788420F
:10AB600010B501EB020307D8421E99420AD011F832
:10AB7000014B02F8014FF8E78342F5D98118D21A48
:10AB8000D34200D110BD13F8014D01F8014DF7E794
:10AB900002440346934200D1704703F8011BF9E7D2
:10ABA00038B50546002945D051F8043C0C1F002B50
:10ABB000B8BFE41801F0E4FB1F4A1368104633B92C
:10ABC000636014602846BDE8384001F0DABBA34258
:10ABD0000CD921686218934204BF1A685B686360ED
:10ABE00004BF521822600460ECE713465A680AB1A9
:10ABF000A242FAD919685818A0420BD12068014422
:10AC0000581882421960DDD1106852685A600144B8
:10AC10001960D7E702D90C232B60D3E720682118ED
:10AC20008A4204BF11685268626004BF091821603B
:10AC30005C60C7E738BD00BF0049002070B5CD1C7F
:10AC400025F0030508350C2D38BF0C25002D0646D0
:10AC500001DBA94203D90C233360002070BD01F051
:10AC60008FFB214A1468214691B9204C23681BB9F7
:10AC7000304600F099FC20602946304600F094FCF4
:10AC8000431C24D10C233360304601F07AFBE4E707
:10AC90000B685B1B18D40B2B0FD90B60CD50CC1855
:10ACA000304601F06EFB04F10B00231D20F007007D
:10ACB000C31AD3D05A42E250D0E78C424B6816BF39
:10ACC000636013600C46EBE70C464968CCE7C41C94
:10ACD00024F00304A04205D0211A304600F064FCA1
:10ACE0000130CFD02560DBE7004900200449002077
:10ACF0002DE9FF4755EC104B0D9FDDF830A0002DDE
:10AD00000E4691461946B8BF22462B4627F020072B
:10AD1000BBBF05F100431D4600232D23B8BF1446D9
:10AD2000462F0B7004D0452F00D10136022100E0E0
:10AD3000032103AB019302AB00933246534645EC2B
:10AD4000104B00F005FD472F804602D119F0010F8E
:10AD500026D0462F08EB060911D198F80030302B89
:10AD60000AD1002200232046294601F0C9FF18B964
:10AD7000C6F10106CAF80060DAF8003099440022F2
:10AD800000232046294601F0BBFF38B93022039B3F
:10AD90004B4505D2591C03911A70F8E7CDF80C9079
:10ADA000039B0E9AA3EB08034046136004B0BDE872
:10ADB000F087F7B500290446BABF49422D232B235B
:10ADC000092904F8022B437020DD0DF107031F460B
:10ADD0000A2691FBF6F506FB15113031092D03F813
:10ADE000011C03F1FF32294609DC3031023B02F835
:10ADF000011CBB42224604D3101A03B0F0BD134617
:10AE0000E7E713F8012B04F8012BF2E7302319448C
:10AE10008370021DC170EFE72DE9F04F8DB00C4635
:10AE2000DDF8588016461F46054601F049FA0368CA
:10AE30000493184600F0E8FB00230A93D8F800308A
:10AE40000590073323F0070303F1080294F818A0D4
:10AE5000D4F800B0C8F80020D3E90023C4E91223D5
:10AE6000D4E9128929F000430793CDF818804FF0F8
:10AE7000FF32A74BDDE9060101F074FF70BB4FF014
:10AE8000FF32A34BDDE9060101F04EFF30BB00228B
:10AE900000234046494601F03DFF10B12D2384F8C0
:10AEA00043309C4A9C4BBAF1470F8CBF9046984662
:10AEB00003232BF00402236122604FF00009009766
:10AEC00033460BAA2146284600F0E6F9013040F04F
:10AED0008D804FF0FF300DB0BDE8F08F42464B46FD
:10AEE0004046494601F03EFF10B18C4A8C4BDAE7F0
:10AEF00061684B1C4BF480620AA83ED10623636054
:10AF00000023CDE9020309AB009349EC108B0DF14E
:10AF100023032260CDF804A061682846FFF7E8FE0D
:10AF20000AF0DF03472B804609D1099BD81C02DBBE
:10AF30006268934247DDAAF1020A5FFA8AFABAF11F
:10AF4000650F099924D80139524604F1500009913E
:10AF5000FFF72FFF0A9A1318012A8146236102DCAA
:10AF60002268D10701D5013323619DF82330002BDE
:10AF7000A5D02D2384F84330A1E7BAF1670F00F084
:10AF80007781BAF1470FBBD10029B9D10123B6E7C8
:10AF9000BAF1660F19D1002963680CDD216113B97C
:10AFA0002268D20702D501330B442361099BA365B4
:10AFB0004FF00009D9E713B92268D00701D5023351
:10AFC000F3E70123F1E74FF0670ADDE90932934225
:10AFD00005DB22682361D107E8D50133E5E7002BC3
:10AFE000D4BFC3F1020301231344DEE723685A05EB
:10AFF00007D42369424631462846B84701302BD151
:10B0000067E7BAF1650F40F2DC8000220023D4E943
:10B01000120101F075FE002833D00123414A314668
:10B020002846B84701303FF454AFDDE909239A427E
:10B0300002DB2368D8070FD5DDE904233146284613
:10B04000B84701303FF445AF4FF0000804F11A094A
:10B050000A9B013B434509DC23689B0700F1038100
:10B06000E0680B9B9842B8BF184634E701234A4674
:10B0700031462846B84701303FF42BAF08F10108AC
:10B08000E6E7099B002B2BDC0123264A31462846A4
:10B09000B84701303FF41DAF099B23B90A9B13B990
:10B0A0002368D907D8D5DDE9042331462846B847B7
:10B0B00001303FF40EAF4FF0000904F11A0A099B6A
:10B0C0005B424B4501DC0A9B94E701235246314623
:10B0D0002846B84701303FF4FCAE09F10109EEE71C
:10B0E0000A9AA36D9A42A8BF1A46002A914607DD24
:10B0F0001346314642462846B84701303FF4E9AE90
:10B1000004F11A034FF0000B29EAE979069315E0E0
:10B11000FFFFEF7F72D002006ED002007AD00200F3
:10B1200076D002007ED002000123069A31462846DE
:10B13000B84701303FF4CDAE0BF1010BD4F858A065
:10B14000AAEB09035B45EFDCDDE909239A42D04411
:10B1500015DB2368DA0712D40A9B0999A3EB0A02CC
:10B16000A3EB010A9245A8BF9246BAF1000F0EDC8C
:10B170004FF000082AEAEA7A04F11A0919E0DDE939
:10B18000042331462846B8470130E5D1A1E65346AD
:10B19000424631462846B8470130E9D199E60123B5
:10B1A0004A4631462846B84701303FF492AE08F18E
:10B1B0000108DDE909239B1AA3EB0A034345EEDCF2
:10B1C0004AE70A9A012A01DCDB073AD50123424605
:10B1D00031462846B84701303FF47BAEDDE9042311
:10B1E00031462846B847013008F101083FF471AEF6
:10B1F0000A9B002203F1FF3AD4E91201002301F077
:10B200007FFDC8B95346424631462846B84701300B
:10B210000ED15EE60123524631462846B84701303A
:10B220003FF457AE08F101080A9B013B4345F1DCAE
:10B230004B4604F15002DEE64FF0000804F11A0A12
:10B24000F2E70123DFE701234A4631462846B847A3
:10B2500001303FF43EAE08F10108E3680B9A9B1AF7
:10B260004345F0DCFCE64FF0000804F11909F4E76F
:10B2700000293FF48BAE0023CDE9020309AB009314
:10B2800049EC108B2260CDF804A00DF12303284671
:10B29000FFF72EFD804648E62DE9F04791461F4610
:10B2A0008A680B69DDF820809342B8BF1346C9F85D
:10B2B000003091F8432006460C4612B10133C9F81C
:10B2C00000302368990642BFD9F800300233C9F82C
:10B2D0000030256815F0060507D104F1190AE36866
:10B2E000D9F800209B1AAB4228DC94F8433022683E
:10B2F000003318BF012392062DD404F143023946CE
:10B300003046C047013020D02368E568D9F80020D6
:10B3100003F00603042B08BFAD1AA36822690CBF13
:10B3200025EAE57500259342C4BF9B1AED184FF03E
:10B3300000091A344D451AD1002008E00123524675
:10B3400039463046C047013003D14FF0FF30BDE8E9
:10B35000F0870135C3E7E1185A1C302081F843001B
:10B36000224494F8451082F843100233C5E70123C4
:10B37000224639463046C0470130E6D009F101097E
:10B38000D8E700002DE9F04301F1430C0C46097E9B
:10B3900085B06E291746064698460C9A00F0B38091
:10B3A00022D8632936D00AD8002900F0B98058295C
:10B3B00000F0838004F1420584F8421032E06429F1
:10B3C00001D06929F6D120681368050603F104014C
:10B3D0002AD51B681160002B03DA2D225B4284F80A
:10B3E00043206F480A2239E0732900F09D8008D875
:10B3F0006F2920D07029DDD1236843F0200323601A
:10B4000003E0752917D07829D4D1782384F8453002
:10B41000644855E01368191D1B68116004F142056A
:10B4200084F8423001238CE01B68116010F0400F5B
:10B4300018BF1BB2CFE713682568181D10602806D7
:10B4400001D51B6802E06806FBD51B8854486F29AC
:10B4500014BF0A220822002184F843106568A56001
:10B46000002DC0F29580216821F004012160002B9D
:10B470003DD1002D40F08E806546082A0BD123680F
:10B48000DB0708D5236962689A42DEBF302305F8DE
:10B49000013C05F1FF35ACEB05032361CDF80080DD
:10B4A0003B4603AA21463046FFF7F6FE01304DD158
:10B4B0004FF0FF3005B0BDE8F083394884F84510FF
:10B4C000136821681D1D1B6815600A060BD5CA0785
:10B4D00044BF41F0200121601BB9226822F0200204
:10B4E00022601022B7E74D0648BF9BB2EFE76546E2
:10B4F000B3FBF2F102FB1133C35C05F8013D0B46CF
:10B500000029F5D1B9E7136825686169181D106035
:10B5100028061B6801D5196002E06A06FBD5198070
:10B52000002323616546B9E71368191D11601D6882
:10B5300062680021284600F0D3FE08B1401B60601D
:10B5400063682361002384F84330A7E723692A4610
:10B5500039463046C0470130AAD023689B0713D430
:10B56000E068039B9842B8BF1846A3E701234A4608
:10B5700039463046C04701309AD00135E368039A16
:10B580009B1AAB42F2DCEBE7002504F11909F5E761
:10B59000002BACD1037884F8423004F142056CE70B
:10B5A00080D0020091D0020038B5064C0023054639
:10B5B0000846236001F014FC431C02D1236803B148
:10B5C0002B6038BDE84A00200EB400B59CB01DAB1E
:10B5D000029006906FF000410948079104910949D3
:10B5E00053F8042B05910068019302A901F034FA85
:10B5F000029B00221A701CB05DF804EB03B0704788
:10B60000143500200802FFFF034613F8012B002A1F
:10B61000FBD1181A0138704749B1FF2A85BF8A2328
:10B6200003600A704FF0FF3098BF01207047084652
:10B6300070472DE9F74F03690C69A3428046C0F2B9
:10B640008280013C01F114074FEA840C00F11406DA
:10B6500057F8245056F8240006EB0C03013507EB8D
:10B660000C090193B0FBF5F595B34FF0000A38468D
:10B67000B646D34650F8042B93B205FB03A34FEA1A
:10B68000134A9BB2ABEB0303120CDEF800B005FBD0
:10B6900002A213FA8BF34FEA124A1FFA82FBDEF87A
:10B6A0000020CBEB124202EB23429BB243EA02435F
:10B6B00081454FEA224B4EF8043BDBD256F80C3062
:10B6C00033B9019B043B9E421A4630D3C8F8104060
:10B6D000404601F06DF8002825DB013530464FF07B
:10B6E000000C57F8042BD0F800E093B2ACEB030346
:10B6F000120C13FA8EF3C2EB1E4202EB23429BB2F2
:10B7000043EA0243B9454FEA224C40F8043BE8D2F1
:10B7100056F8242006EB84032AB9043B9E421A46BD
:10B720000BD3C8F81040284603B0BDE8F08F12686C
:10B73000043B002ACAD1013CC5E71268043B002A39
:10B74000EFD1013CEAE70020EEE700000000000036
:10B750002DE9F04F57EC106B97B0456A06910446FF
:10B760000B921293DDF88080CDE900673DB910207F
:10B77000FFF7C8F96062C0E901550560C560636AFA
:10B78000196851B15A684A60012393408B60204682
:10B7900000F02CFE636A00221A603B1EBBBF23F040
:10B7A0000043019300230122ACBFC8F80030C8F861
:10B7B0000020AF4BDDF8048033EA080314D1129A5D
:10B7C00042F20F731360009B23B9C8F313000028E3
:10B7D00000F04285219BDFF8ACB2002B00F04485DD
:10B7E0000BF1030300F03EBDDDE9006700220023FA
:10B7F0003046394601F084FA814668B1129A012335
:10B800001360219B002B00F024859A4B219A03F1B1
:10B81000FF3B136000F028BD14AA15A947EC106B7C
:10B82000204601F03CF8C8F30A550490002D7CD066
:10B83000C7F3130343F07F5BB2464BF4401BA5F202
:10B84000FF35CDF84C9000228B4B50465946FEF701
:10B8500057FD81A3D3E90023FEF70AFF80A3D3E9B4
:10B860000023FEF74FFD064628460F46FEF796FEDC
:10B870007DA3D3E90023FEF7FBFE02460B463046CC
:10B880003946FEF73FFD06460F4601F081FA0022D9
:10B89000824600233046394601F03CFA48B1504612
:10B8A000FEF77CFE32463B4601F02AFA08B90AF15F
:10B8B000FF3ABAF1160F59D8704901EBCA01DDE918
:10B8C0000023D1E9000101F043FA002850D00AF129
:10B8D000FF3A00230F93149B5D1BB5F1010849BF8C
:10B8E000C5F10103002305934FF0000858BF0593ED
:10B8F000BAF1000F3EDB0023D044CDF838A0079307
:10B90000069B092B00F29080052BC4BF043B0693D5
:10B91000069BA3F10203CCBF00250125032B00F2F7
:10B920008F80DFE803F07D7F3171DDE914531D4422
:10B9300005F23240202813DDC0F14000009B08FAD8
:10B9400000F805F2124023FA00F048EA0000FEF782
:10B9500015FE01238246A1F1F87B013D139372E7A6
:10B96000009BC0F1200003FA00F0F0E70123B1E7EB
:10B970000F90B0E7059BA3EB0A030593CAF1000300
:10B98000079300230E93BBE701230A930B9B002B25
:10B9900059DD02939946666A00227260042202F120
:10B9A00014009842716853D9204600F0EBFC636A9A
:10B9B0003060B9F10E0FD3F800B000F2E680002D30
:10B9C00000F0E3809DED007BBAF1000F8DED107B60
:10B9D00074DD2A4A0AF00F0302EBC30393ED007BE8
:10B9E0004FEA2A16F0068DED087B65D5244BDDE97C
:10B9F0001001D3E90823FEF765FFCDE9000106F049
:10BA00000F0603251E4F4CE001230A930B9B534462
:10BA100003F1010902934B46012BB8BF0123BAE79A
:10BA20000023B2E70023F0E70125002306930A95DF
:10BA30004FF0FF3302939946002212230B92AAE79C
:10BA400001230A93F4E70123029399461A46F5E786
:10BA5000013171605200A2E761436F63A787D23F53
:10BA6000B3C8608B288AC63FFB799F501344D33FED
:10BA70000000F07F7FD002000000F83FD8D1020024
:10BA8000B0D10200ACD10200F10708D5DDE9080110
:10BA9000D7E90023FEF7ECFDCDE90801013576106A
:10BAA0000837002EF0D1DDE90823DDE90001FEF7BB
:10BAB00009FFCDE900011AE00225A3E700F0A0800C
:10BAC000CAF100069F4BA04F06F00F0203EBC20322
:10BAD000D3E90023DDE91001FEF7CAFDCDE900013D
